:020000040800F2
:1000000000040020C1010008E10F0008E10F000812
:10001000E10F0008E10F0008E10F0008E10F000800
:10002000E10F0008E10F0008E10F0008D1260008E9
:10003000E10F0008E10F0008E10F0008414A000845
:10004000E10F0008E10F0008E10F0008E10F0008D0
:10005000E10F0008E10F0008E10F0008E10F0008C0
:10006000E10F0008E10F0008E10F0008513300081C
:1000700091330008D13300081134000851340008CE
:1000800091340008D1340008E10F0008E10F0008A6
:10009000E10F0008E10F0008E10F0008E10F000880
:1000A000E10F0008E10F000831490008E10F0008E6
:1000B000E10F0008E10F0008E10F0008513D0008C2
:1000C000713E0008E10F0008E10F0008E10F000891
:1000D000E10F0008E10F0008E10F0008B14A000835
:1000E000E10F0008E10F0008E10F0008E10F000830
:1000F000E10F0008E10F0008E10F000811350008CA
:10010000E10F0008E10F0008E10F0008E10F00080F
:10011000E10F0008E10F0008E10F0008E10F0008FF
:100120005135000891350008D13500081136000816
:1001300051360008E10F0008E10F0008E10F000848
:10014000E10F0008E10F0008E10F00084147000837
:1001500091360008D136000811370008E10F000879
:10016000E10F0008E10F0008E10F0008E10F0008AF
:10017000E10F0008E10F0008E10F0008E10F00089F
:10018000E10F0008E10F0008E10F0008E10F00088F
:10019000E10F0008E10F0008E10F0008E10F00087F
:1001A000E10F0008E10F0008E10F0008E10F00086F
:1001B000E10F0008E10F0008E10F0008E10F00085F
:1001C00072B62E4880F3098840F20000CCF200009D
:1001D0004EF63471CEF20001086040F20000C0F229
:1001E000F0004EF68851CEF2000108604FF000009A
:1001F000E1EE100A4EF63C71CEF2000108600620D6
:1002000080F31488BFF36F8F04F072FD4FF0553008
:100210001B491C4A91423CBF41F8040BFAE71A49BA
:10022000164A91423CBF41F8040BFAE71749184AB5
:10023000184B9A423EBF51F8040B42F8040BF8E702
:1002400000201549154A91423CBF41F8040BFAE7DA
:1002500000F0B6FE124C134DAC4203DA54F8041B06
:100260008847F9E705F074FA0F4C104DAC4203DAF9
:1002700054F8041B8847F9E700F0AABE00080020E4
:100280000000002000040020000400200067000897
:10029000000800202C0800203008002078180020DA
:1002A000C0010008C0010008C0010008C00100082A
:1002B0002DE9F04F2DED108AC1F80CD0D0F80CD0FC
:1002C000BDEC108ABDE8F08F00F07AFF01F0C8FCA9
:1002D000002383F311882846A047002001F080FB0B
:1002E00001F0B6FC00F05CFF01F02AFA00F068FFB4
:1002F00001F0B6FC00DFFEE7000000000000000097
:1003000081F0004102E000BF83F0004330B54FEAC6
:1003100041044FEA430594EA050F08BF90EA020F33
:100320001FBF54EA000C55EA020C7FEA645C7FEAC6
:10033000655C00F0E2804FEA5454D4EB5555B8BFE9
:100340006D420CDD2C4480EA020281EA030382EA5A
:10035000000083EA010180EA020281EA0303362DEC
:1003600088BF30BD11F0004F4FEA01314FF4801CBF
:100370004CEA113102D0404261EB410113F0004FD1
:100380004FEA03334CEA133302D0524263EB430388
:1003900094EA050F00F0A780A4F10104D5F1200E26
:1003A0000DDB02FA0EFC22FA05F2801841F1000181
:1003B00003FA0EF2801843FA05F359410EE0A5F155
:1003C00020050EF1200E012A03FA0EFC28BF4CF086
:1003D000020C43FA05F3C01851EBE37101F000453C
:1003E00007D54FF0000EDCF1000C7EEB00006EEB49
:1003F0000101B1F5801F1BD3B1F5001F0CD34908D3
:100400005FEA30004FEA3C0C04F101044FEA445229
:1004100012F5800F80F09A80BCF1004F08BF5FEAB0
:10042000500C50F1000041EB045141EA050130BD90
:100430005FEA4C0C404141EB010111F4801FA4F133
:100440000104E9D191F0000F04BF01460020B1FA88
:1004500081F308BF2033A3F10B03B3F120020CDAC0
:100460000C3208DD02F1140CC2F10C0201FA0CF09E
:1004700021FA02F10CE002F11402D8BFC2F1200C03
:1004800001FA02F120FA0CFCDCBF41EA0C019040B9
:10049000E41AA2BF01EB0451294330BD6FEA040402
:1004A0001F3C1CDA0C340EDC04F11404C4F12002ED
:1004B00020FA04F001FA02F340EA030021FA04F3FF
:1004C00045EA030130BDC4F10C04C4F1200220FA56
:1004D00002F001FA04F340EA0300294630BD21FA94
:1004E00004F0294630BD94F0000F83F4801306BF5A
:1004F00081F480110134013D4EE77FEA645C18BF4E
:100500007FEA655C29D094EA050F08BF90EA020FE4
:1005100005D054EA000C04BF1946104630BD91EADC
:10052000030F1EBF0021002030BD5FEA545C05D1DF
:100530004000494128BF41F0004130BD14F580041E
:100540003CBF01F5801130BD01F0004545F0FE4192
:1005500041F470014FF0000030BD7FEA645C1ABFC7
:10056000194610467FEA655C1CBF0B46024650EAFE
:10057000013406BF52EA033591EA030F41F400212A
:1005800030BD00BF90F0000F04BF0021704730B5B0
:100590004FF4806404F132044FF000054FF0000185
:1005A00050E700BF90F0000F04BF0021704730B546
:1005B0004FF4806404F1320410F0004548BF40421B
:1005C0004FF000013EE700BF42004FEAE2014FEA70
:1005D00031014FEA02701FBF12F07F4393F07F4F4B
:1005E00081F06051704732F07F4208BF704793F04E
:1005F0007F4F04BF41F40021704730B54FF4607461
:1006000001F0004521F000411CE700BF50EA010263
:1006100008BF704730B54FF000050AE050EA01020C
:1006200008BF704730B511F0004502D5404261EB7C
:1006300041014FF4806404F132045FEA915C3FF4BD
:10064000D8AE4FF003025FEADC0C18BF03325FEA5A
:10065000DC0C18BF033202EBDC02C2F1200300FA0B
:1006600003FC20FA02F001FA03FE40EA0E0021FA30
:1006700002F11444BDE600BF0000000000000000CD
:1006800070B54FF0FF0C4CF4E06C1CEA11541DBF28
:100690001CEA135594EA0C0F95EA0C0F00F0DEF8F3
:1006A0002C4481EA030621EA4C5123EA4C5350EAD8
:1006B000013518BF52EA033541F4801143F4801329
:1006C00038D0A0FB02CE4FF00005E1FB02E506F0BA
:1006D0000042E0FB03E54FF00006E1FB03569CF00F
:1006E000000F18BF4EF0010EA4F1FF04B6F5007F15
:1006F00064F5407404D25FEA4E0E6D4146EB060687
:1007000042EAC62141EA55514FEAC52040EA5E500F
:100710004FEACE2EB4F1FD0C88BFBCF5E06F1ED8B9
:10072000BEF1004F08BF5FEA500E50F1000041EBF0
:10073000045170BD06F0004646EA010140EA02009D
:1007400081EA0301B4EB5C04C2BFD4EB0C0541EABF
:10075000045170BD41F480114FF0000E013C00F3D4
:10076000AB8014F1360FDEBF002001F0004170BDF8
:10077000C4F10004203C35DA0C341BDC04F1140411
:10078000C4F1200500FA05F320FA04F001FA05F29D
:1007900040EA020001F0004221F0004110EBD3706A
:1007A00021FA04F642EB06015EEA430E08BF20EA96
:1007B000D37070BDC4F10C04C4F1200500FA04F339
:1007C00020FA05F001FA04F240EA020001F00041CB
:1007D00010EBD37041F100015EEA430E08BF20EA3E
:1007E000D37070BDC4F1200500FA05F24EEA020E86
:1007F00020FA04F301FA05F243EA020321FA04F0B5
:1008000001F0004121FA04F220EA020000EBD3706B
:100810005EEA430E08BF20EAD37070BD94F0000F6B
:100820000FD101F00046400041EB010111F4801F9F
:1008300008BF013CF7D041EA060195F0000F18BF50
:10084000704703F00046520043EB030313F4801F8C
:1008500008BF013DF7D043EA0603704794EA0C0F46
:100860000CEA135518BF95EA0C0F0CD050EA41065C
:1008700018BF52EA4306D1D181EA030101F00041D9
:100880004FF0000070BD50EA410606BF1046194601
:1008900052EA430619D094EA0C0F02D150EA01360D
:1008A00013D195EA0C0F05D152EA03361CBF10464E
:1008B00019460AD181EA030101F0004141F0FE41ED
:1008C00041F470014FF0000070BD41F0FE4141F471
:1008D000780170BD70B54FF0FF0C4CF4E06C1CEA71
:1008E00011541DBF1CEA135594EA0C0F95EA0C0F26
:1008F00000F0A7F8A4EB050481EA030E52EA0335E1
:100900004FEA013100F088804FEA03334FF0805501
:1009100045EA131343EA12634FEA022245EA11152E
:1009200045EA10654FEA00260EF000419D4208BFDF
:10093000964244F1FD0404F5407402D25B084FEA8C
:100940003202B61A65EB03055B084FEA32024FF438
:1009500080104FF4002CB6EB020E75EB030E22BF95
:10096000B61A754640EA0C005B084FEA3202B6EB55
:10097000020E75EB030E22BFB61A754640EA5C0004
:100980005B084FEA3202B6EB020E75EB030E22BF94
:10099000B61A754640EA9C005B084FEA3202B6EB95
:1009A000020E75EB030E22BFB61A754640EADC0054
:1009B00055EA060E18D04FEA051545EA16754FEAB6
:1009C00006164FEAC30343EA52734FEAC2025FEAD4
:1009D0001C1CC0D111F4801F0BD141EA00014FF063
:1009E00000004FF0004CB6E711F4801F04BF014334
:1009F0000020B4F1FD0C88BFBCF5E06F3FF6AFAE50
:100A0000B5EB030C04BFB6EB020C5FEA500C50F1DF
:100A1000000041EB045170BD0EF0004E4EEA113162
:100A200014EB5C04C2BFD4EB0C0541EA045170BD69
:100A300041F480114FF0000E013C90E645EA060EAD
:100A40008DE60CEA135594EA0C0F08BF95EA0C0FDB
:100A50003FF43BAF94EA0C0F0AD150EA01347FF423
:100A600034AF95EA0C0F7FF425AF104619462CE7FA
:100A700095EA0C0F06D152EA03353FF4FDAE10465D
:100A8000194622E750EA410618BF52EA43067FF4AE
:100A9000C5AE50EA41047FF40DAF52EA43057FF43E
:100AA000EBAE12E7000000000000000000000000B4
:100AB0004FEA410212F5001215D211D56FF4787386
:100AC000B3EB625212D94FEAC12343F0004343EA29
:100AD000505311F0004F23FA02F018BF4042704704
:100AE0004FF00000704750EA013005D111F000408E
:100AF00008BF6FF0004070474FF00000704700BF24
:100B00004FEA4102B2F1E04324BFB3F5001CDCF12F
:100B1000FE5C0DD901F0004C4FEAC0024CEA507067
:100B2000B2F1004F40EB830008BF20F00100704796
:100B300011F0804F21D113F13872BCBF01F0004099
:100B4000704741F480114FEA5252C2F11802C2F1CB
:100B5000200C10FA0CF320FA02F018BF40F001004C
:100B60004FEAC1234FEAD32303FA0CFC40EA0C00FE
:100B700023FA02F34FEA4303CCE77FEA625307D13B
:100B800050EA01331EBF4FF0FE4040F44000704772
:100B900001F0004040F0FE4040F40000704700BF0C
:100BA000844641EA000313F003036DD1403A41D378
:100BB00051F8043B40F8043B51F8043B40F8043B37
:100BC00051F8043B40F8043B51F8043B40F8043B27
:100BD00051F8043B40F8043B51F8043B40F8043B17
:100BE00051F8043B40F8043B51F8043B40F8043B07
:100BF00051F8043B40F8043B51F8043B40F8043BF7
:100C000051F8043B40F8043B51F8043B40F8043BE6
:100C100051F8043B40F8043B51F8043B40F8043BD6
:100C200051F8043B40F8043B51F8043B40F8043BC6
:100C3000403ABDD2303211D351F8043B40F8043B66
:100C400051F8043B40F8043B51F8043B40F8043BA6
:100C500051F8043B40F8043B103AEDD20C3205D376
:100C600051F8043B40F8043B043AF9D2043208D06E
:100C7000D2071CBF11F8013B00F8013B01D30B88E0
:100C800003806046704700BF082A13D38B078DD0BE
:100C900010F003038AD0C3F10403D21ADB071CBF90
:100CA00011F8013B00F8013B80D331F8023B20F8FA
:100CB000023B7BE7043AD9D3013A11F8013B00F833
:100CC000013BF9D20B7803704B7843708B788370BB
:100CD00060467047000000000000000000000000B7
:100CE000A2EB0300704700BF02780B78012A28BFEF
:100CF0009A42F5D16DE9044540EA0104CDE9026765
:100D00006FF0000C4FEA447212B380EA010414F051
:100D1000070F6AD100F0070420F0070004F0030574
:100D200021F007014FEAC505F0E8042314F0040F91
:100D3000F1E804670CFA05F462EA040266EA0406C4
:100D40000AD063EA0403624667EA0407664603E0E2
:100D5000F0E80423F1E8046782FA4CF582EA06041D
:100D6000A4FA8CF46CBB83FA4CF583EA0705A5FA68
:100D70008CF595B950E9022351E9026782FA4CF5E6
:100D800082EA0604A4FA8CF483FA4CF583EA070598
:100D9000A5FA8CF52543DBD09CB92DBAB5FA85F4BC
:100DA00024F0070427FA04F1DDE9026723FA04F3CB
:100DB00003F0FF0001F0FF01FDE80445A0EB010096
:100DC000704724BAB4FA84F424F0070426FA04F134
:100DD000DDE9026722FA04F202F0FF0001F0FF01F0
:100DE000FDE80445A0EB0100704714F0030F3CD16F
:100DF00010F0030428D150F8082B51F8083B82FA70
:100E00004CF582EA0305A5FA8CF55DB950F8042C7F
:100E100051F8043C82FA4CF582EA0305A5FA8CF5F8
:100E2000002DE8D02DBAB5FA85F424F0070423FA92
:100E300004F122FA04F202F0FF0001F0FF01FDE8E4
:100E40000445A0EB010070474FEAC40420F0030002
:100E500050F8082B21F0030151F8083B0CFA04F478
:100E600062EA040263EA0403C9E710F003041AD03B
:100E7000A1EB040120F00300E40750F8042B06D096
:100E80000FD28B785FFAA2F4E41A06D12BB1CB789B
:100E90005FFAB2F4E41A00D11BB920465DF8104B9A
:100EA000704701F1040150F8042BCC0721F0030135
:100EB00051F8043B48D824D222F07F4482FA4CF502
:100EC00094EA1325A5FA8CF50AD165B951F8043BCB
:100ED00084EA0204B4EB036F0ED150F8042BEBE765
:100EE0004FEA132355E035F07F454DD10878FDE8F2
:100EF0000445C0F1000070474FEA126203F0FF039F
:100F000047E002EA1C4482FA4CF594EA1345A5FA3C
:100F10008CF50AD165B951F8043B84EA0204B4EBBC
:100F2000034F0CD150F8042BEBE74FEA134330E0AA
:100F300015EA1C4528D10B884FEA124229E04FEAF6
:100F4000124203EA1C4324E002F0FF0482FA4CF54B
:100F500094EA1365A5FA8CF50AD165B951F8043BFA
:100F600084EA0204B4EB032F09D150F8042BEBE719
:100F70004FEA13630DE015F0FF0F05D10B684FEA40
:100F8000122223F07F4304E04FF00000FDE8044507
:100F9000704712BA1BBA82FA4CF482EA0304A4FA2C
:100FA0008CF5B5FA85F402FA04F203FA04F34FEA79
:100FB0001260FDE80445A0EB1360704700000000DC
:100FC000704700BF000000000000000000000000AB
:100FD000FEE700BF0000000000000000000000006D
:100FE00008B5024800F06CF8FEE700BF305E00086C
:100FF000FEE700BF0000000000000000000000004D
:10100000254B264A2648F0B500249C60D9684FF647
:10101000FF0529400A43DA60C2682249224D42F0A6
:101020008072C2600A6842F001020A601020202229
:1010300083B0D87783F8222000F0E2F900F078F945
:1010400000F086FD01F0DCFA01F032FB00F0C0FD9B
:1010500000F04EF94021284600F082FBA5F5886794
:10106000124BC361012680F82060B86100F088F857
:1010700084F3118862B6BB690D4A9A6105F1A80034
:10108000324600940B4B4FF4C47100F0C9FB0A4B7D
:10109000836103B0F0BD00BF00ED00E00003FA057E
:1010A000F0ED00E0001000E0700C002000040020D3
:1010B000C05F0008F10F0008505E0008000000004B
:1010C00008B5044672B604F0B3FA014BDC62FEE7E1
:1010D00030080020000000000000000000000000B8
:1010E0002DE9F8431A4D00F0E3F8AB6993F823209B
:1010F00012B1013A83F823205A6A164F01325A621C
:1011000000F0D6F8AB6AEC690133BC42AB621DD08B
:10111000A668013EA660CEB94FF020092368D4F836
:101120000C80E6605F60EB6100F07AF800F0A8FDEB
:1011300086F311882069C04789F3118800F098FD73
:1011400000F056F8EC69A368002BE7D0BDE8F883FF
:10115000300800204C0800200000000000000000C3
:10116000034A516853685B1A9842FBD8704700BF26
:10117000001000E00000000000000000000000007F
:10118000044B1A6B0AB95B6B13B10348FFF798BFA6
:10119000704700BF30080020605E000800000000BB
:1011A00010B5054C236B0BB9636B13B10348FFF704
:1011B00087FF0123636310BD30080020905E0008A4
:1011C00010B5074C236B2BB9636B002B02DD00239A
:1011D000636310BD0348FFF773FF0023636310BD13
:1011E00030080020B05E0008000000000000000091
:1011F00010B5064C236B002B01DD636B13B1044863
:10120000FFF75EFF0123636310BD00BF30080020BD
:10121000A05E0008000000000000000000000000C8
:1012200010B5084C236B002B05DD636B002B02DD32
:101230000023636310BD0448FFF742FF002363638C
:1012400010BD00BF30080020C05E00080000000094
:1012500010B5202383F31188074C236B002B01DB8F
:10126000626B1AB10548FFF72BFF236B0133236331
:10127000002383F3118810BD30080020705E000841
:1012800010B5202383F31188074C236B002B01DD5D
:10129000626B1AB10548FFF713FF236B013B236311
:1012A000002383F3118810BD30080020805E000801
:1012B000054B1A6B002A03DB5B6B002B00DD7047CC
:1012C0000248FFF7FDBE00BF30080020D05E0008D6
:1012D000044B1A6B1AB95B6B002B00DD7047024898
:1012E000FFF7EEBE30080020E05E000800000000BE
:1012F000024B40215A18C3E90E12704730080020F3
:101300000A4A30B4D36B846A9169956A1D60C3E957
:10131000011490F820101973103302F588618B4284
:1013200028BF02F14003D36330BC7047300800206F
:10133000054B4FF0FF30002103F11C025862996207
:10134000C3E90722704700BF3008002000000000FA
:10135000F8B505460C4616461F46FFF7A9FFD5B15E
:10136000CEB1C4B10E482F61C369EE609A68944251
:1013700004D91B68A41A9A68A242FAD35A68C5E92C
:10138000003215605D60AC6099684FF0FF32091B58
:1013900099604262F8BD0348FFF792FEE2E700BFA2
:1013A00030080020F05E000800000000000000008F
:1013B00038B50446FFF77CFFACB1E3687BB1236826
:1013C000A5689A6861680A482A449A600B60256893
:1013D00000224FF0FF336960E260436238BD054888
:1013E000FFF76EFEEBE70348FFF76AFEE5E700BF95
:1013F00030080020005F000800000000000000002E
:10140000034B0022C3E90033C3E904339A607047F9
:101410003008002000000000000000000000000074
:1014200010B50446FFF744FFC4B194F820308BB1E7
:101430000F2B0FD00022A1680A4B84F820201B68D4
:101440009A688A42FBD25A682046C4E90032146086
:101450005C6010BD0448FFF733FEEBE70248FFF77E
:101460002FFEE2E730080020105F000800000000B7
:1014700038B50446202383F3118800F0F9FBFFF709
:10148000B7FE94F82030072B10D8DFE803F0150FD3
:101490000F1D0A040F0AA56AFFF70AFFAB680133A4
:1014A000AB60D4E900231A60226853604FF0FF3329
:1014B000A3622046FFF7B4FFFFF7B2FE00F0E0FBA7
:1014C000002383F3118838BDA36A00221A604FF00D
:1014D000FF33A3622046FFF7A3FFEDE70000000003
:1014E00070B5144C0646FFF7F3FEA569236885F82E
:1014F0002060142285F823201A682260012154609C
:10150000284683F82010A361FFF7FAFE2946A06958
:1015100000F086FBEFF30983EA69643B9A4202D943
:101520000548FFF7CDFD2946A069BDE87040FEF7EC
:10153000BFBE00BF30080020205F00080000000090
:1015400070B50D4686B00646FFF7C2FE6B1C14D080
:101550000E4C0F4AA369294601A8FFF7F9FE304651
:10156000FFF7BEFFFFF7A4FE049B13B101A8FFF72E
:101570001FFFA369986A06B070BD044C3046FFF7A0
:10158000AFFFA369986A06B070BD00BF30080020A5
:1015900071140008000000000000000000000000BE
:1015A00070B5194D04460E46FFF792FEA869A26871
:1015B0008368A6629A4218D9FFF732FF01230646D4
:1015C00084F82030AC61FFF79BFE3146204600F0E6
:1015D00027FBEFF30983F269643B9A420AD831464C
:1015E0002046BDE87040FEF763BE2046BDE870406F
:1015F000FFF716BF0548FFF763FD31462046BDE8FB
:101600007040FEF755BE00BF30080020205F000884
:10161000084A9369116893F8232088689B6822B967
:10162000984234BF002001207047984294BF0020A8
:10163000012070473008002000000000000000007A
:1016400038B5134C2368A5691A682260142101205B
:10165000546083F8200085F823102846A361FFF723
:10166000DFFE2846FFF74CFE2946A06900F0D8FAB5
:10167000EFF30983EA69643B9A4202D90548FFF710
:101680001FFD2946A069BDE83840FEF711BE00BF26
:1016900030080020205F000800000000000000006B
:1016A000174B1A6870B510689C691860A168436090
:1016B0000126002082F820601D469A6184F82000EF
:1016C0001B689A689142FBD35A682046C4E90032ED
:1016D00014605C60FFF714FE2146A86900F0A0FAD0
:1016E000EFF30983E269643B9A4202D90548FFF7A8
:1016F000E7FC2146A869BDE87040FEF7D9BD00BFF0
:1017000030080020205F00080000000000000000FA
:1017100008B5FFF7DDFDFFF7CBFD064B1A689B69A7
:1017200092689B689A4200D808BDBDE80840FFF760
:10173000B7BF00BF3008002000000000000000001C
:10174000044B9B6993F823300BB1FFF7A9BFFFF758
:1017500077BF00BF3008002000000000000000003C
:1017600070B5154A0446142350696164A16084F879
:101770002330022500230121258484F82210C4E9A6
:101780000F3304F168016362A36104F1500504F1B1
:10179000300304F12C06226160610461E161284696
:1017A000C4E90C33E662546100F092F9284600F077
:1017B0009FF9204670BD00BF3008002000000000E7
:1017C000884203D200F8012B8142FBD1704700BF51
:1017D0002DE9F04105460C4616461F46DDF81880F7
:1017E000FFF766FD15B1B4F5BC7F10D20A48FFF7CC
:1017F00067FCA4F164032B44084AEB603146C3E95B
:10180000107828461A66BDE8F041FFF7A9BF7F2E81
:10181000ECD8002FEDD1E9E7705F0008C90200089D
:101820002DE9F04F83B080460C9F894692469B4637
:1018300000F168060446FF2504F8015BA642FBD1CF
:1018400008EB0905A54204D9552604F8016BA54209
:10185000FBD1202383F3118800F0FAF9FFF7A0FCF5
:101860005B465246494600974046FFF7B1FF0021CC
:101870000446FFF795FEFFF7A3FC00F0F1F90A4BD1
:101880001A689A4204D0996993688A689A4206D382
:10189000002383F31188204603B0BDE8F08F03488E
:1018A000FFF70EFCF4E700BF30080020305F0008AF
:1018B00010B52023044683F3118800F0C9F9FFF71F
:1018C0006FFC14B90F48FFF7FBFB21460820FFF718
:1018D00037FEFFF775FC00F0C3F90B4B1A689A420C
:1018E00004D0996993688A689A4203D3002383F3EA
:1018F000118810BD0548FFF7E3FB002383F311882F
:1019000010BD00BF405F000830080020305F0008B5
:1019100070B5202304460E4683F31188164D00F05F
:1019200097F9FFF73DFCA96A331B0C1B9C4218D3A7
:10193000FFF746FC00F094F92B68AB4204D0AA698B
:101940009B6892689A4204D3002383F3118830463F
:1019500070BD0A48FFF7B4FB002383F311883046BB
:1019600070BD741A02D10648FFF7AAFB2146082071
:10197000FFF7E6FDDCE700BF30080020305F00081D
:10198000405F0008000000000000000000000000B0
:1019900038B5104B9C69E36AA06204F12C05AB4298
:1019A00007D01A68E2621846FFF73AFDE36AAB42D5
:1019B000F7D194F821309B0704D1D4E904231A61AC
:1019C000226953610F20FFF78BFD0348BDE83840C3
:1019D000FFF776BB30080020805F000800000000A1
:1019E00010B52023044683F3118800F031F9FFF786
:1019F000D7FB2046BDE81040FFF7CABF000000003B
:101A00000A4A036870B5044696690D4613B1084842
:101A1000FFF756FB3DB126602946B4620320BDE8BE
:101A20007040FFF78DBD4FF0FF3070BD30080020D3
:101A3000905F0008000000000000000000000000AF
:101A400070B504688CB194F82030032B0E4605461F
:101A500007D100232B602046A662BDE87040FFF747
:101A6000DFBC0248FFF72CFBF3E770BDB05F000856
:101A700069B1084B10B4024644689B690420C3E96D
:101A80000024236053605DF8044BFFF759BD4FF00D
:101A9000FF30704730080020000000000000000008
:101AA00038B50468A04210D023680360586094F8E9
:101AB0002030042B0D4602D00448FFF701FBA5623D
:101AC0002046BDE83840FFF7ABBC38BD505F00088A
:101AD00000220023C0E9042300234FF0FF32C0E9B5
:101AE0000023C0E90233704700000000000000003E
:101AF000014B5B6883607047001000E0000000004D
:101B00000F4B104A5B68C168F0B48468D2F8A864CF
:101B100042681B1BD0E904459B1BE61845F10007F2
:101B200001319342C0E90231C0E9046705D8026877
:101B3000934238BF0360F0BC70474360F0BC70470D
:101B4000001000E03008002000000000000000004D
:101B500010B50D4C86B000234FF0FF3100226846CF
:101B6000C4F8A834CDE9013303930023CDE904235D
:101B70000091FFF7BDFF6846FFF7C2FF029BC4F864
:101B8000A83406B010BD00BF3008002000000000DF
:101B90000E4B42685B68F0B48B60D0E90261D0E91B
:101BA00004459B1BE61845F1000701319342C0E94B
:101BB0000231C0E9046705D80268934238BF036068
:101BC000F0BC70474360F0BC704700BF001000E0FD
:101BD00010B5084C002304F59760C4F8B034C4F87D
:101BE000B434FFF775FF04F59A60BDE81040FFF7C5
:101BF0006FBF00BF300800200000000000000000A0
:101C0000034AD2F8B0340133C2F8B034704700BF91
:101C1000300800200000000000000000000000006C
:101C2000074AD2F8B43410B401F15004013300F182
:101C3000500120465DF8044BC2F8B434FFF7A8BF4A
:101C4000300800200000000000000000000000003C
:101C50000148FFF74DBF00BFE80C00200000000066
:101C60000148FFF74DBF00BFE80C00200000000056
:101C70000148FFF73DBF00BF000D0020000000003D
:101C80000148FFF73DBF00BF000D0020000000002D
:101C900010B5044628B10023C4E90044A3602361C1
:101CA00010BD0248FFF70CFAF5E700BFF05F00082F
:101CB000F8B5524B04469D69FFF70AFB002C76D01D
:101CC000A0682369002839D0002B40F38880854222
:101CD00069D0AA6883689A4208D990F82030826057
:101CE000062B36D0072B66D0002B51D02646234634
:101CF00003E09968AA68914229D31B689C42F8D1F5
:101D000073680620C5E900631D607560AC62FFF76B
:101D1000E7FBA368AB4202D03948FFF7D1F92B6C3F
:101D2000A34202D03648FFF7CBF92369012B00D13B
:101D3000F8BD3348BDE8F840FFF7C2B9002B53D1D6
:101D40002A6CA5600133C4E903232C64F8BD1E4648
:101D5000D6E7D0E900131960866A016837464B6000
:101D6000334602E09968914243D31B689E42F9D101
:101D70007B68AA68C0E9007318607860B0688368FF
:101D80009342B3D290F820308260062BAAD1E0E7CC
:101D9000D0E90023012180F820101A600268536006
:101DA000FFF73EFBA2E7236901332361F8BD144826
:101DB000FFF786F984E7D0E900131960866A0168A5
:101DC0004B60334602E09968914214D31B689E42EF
:101DD000F9D17368C0E900631860706086E708484D
:101DE000FFF76EF9A06872E70548FFF769F9236904
:101DF000A6E71F46BCE71E46EBE700BF3008002001
:101E0000006000080000000000000000000000006A
:101E100010B52023044683F31188FFF719FFFFF75D
:101E2000BFF92046FFF744FFFFF7CAF9FFF718FF95
:101E3000094B1A689A4204D0996993688A689A4251
:101E400003D3002383F3118810BD0448FFF738F94A
:101E5000002383F3118810BD30080020E05F0008E4
:101E60002DE9F041384F0546BE69002862D0202395
:101E700083F31188FFF7ECFEFFF792F9336C002B28
:101E80005CD09B68B34202D03048FFF719F92B6948
:101E9000002B47DD013B2B615BBB336CAB4202D0B7
:101EA0002A48FFF70DF9EB683364FFF711FA2B6846
:101EB0009D423CD0D6E9104864B1FFF709FA236887
:101EC0009C4203D09B68984538BF9846E468002C34
:101ED000F3D12B68196C1A68C6F8088001202861B4
:101EE0002A6018465560C5E9023100211D64FFF7DC
:101EF00057FBFFF765F9FFF7B3FE3B68BB4204D021
:101F0000BA699B6892689A4204D3002383F31188CC
:101F1000BDE8F0810E48FFF7D3F8002383F3118862
:101F2000BDE8F0810948FFF7CBF82B69B2E7002341
:101F3000AB60DEE70548FFF7C3F898E70348FFF713
:101F4000BFF8336C9DE700BF300800201060000828
:101F5000E05F00080000000000000000000000003A
:101F6000F8B52A4B05469E69FFF7B2F9002D48D017
:101F7000336C002B40D09B68B34202D02448FFF75B
:101F80009FF82B69002B32DD013B2B61002B2DD1FB
:101F9000336CAB4202D01E48FFF792F8EB68336413
:101FA000FFF796F92B689D421ED0D6E9104764B121
:101FB000FFF78EF923689C4203D09B689F4238BF8D
:101FC0001F46E468002CF3D12B68196C1A68B760BF
:101FD000012028612A6018465560C5E902311D6458
:101FE000BDE8F840FFF71CBA0023AB60F8BD084815
:101FF000FFF766F82B69C7E70548FFF761F8336C10
:10200000B9E70348FFF75CF8B2E700BF30080020EB
:102010002060000800000000000000000000000038
:1020200038B50446FFF744F97CB12368A3420BD0CE
:102030006FF001051A68226018465460FFF7F0F946
:1020400023688562A342F5D138BD0248FFF738F80E
:10205000EBE700BF40600008000000000000000047
:1020600010B52023044683F31188FFF7F1FDFFF735
:1020700097F82046FFF7D4FFFFF74AFBFFF7A0F8D9
:10208000FFF7EEFD094B1A689A4204D099699368EC
:102090008A689A4203D3002383F3118810BD044851
:1020A000FFF70EF8002383F3118810BD30080020DD
:1020B0003060000800000000000000000000000088
:1020C000F8B5184E0546B469FFF702F92DB3236C35
:1020D000FBB1B3691F6C3846FFF742FF2E46A5627D
:1020E0002B4603E09968A268914210D31B689D4279
:1020F000F8D173680720C4E900631C607460FFF7BF
:10210000EFF9A46A3846FFF7D3FD2046F8BD1E4616
:10211000EFE70548FEF7D4FFDBE70348FEF7D0FF03
:10212000D5E700BF30080020606000080000000014
:1021300010B52023044683F31188FFF789FDFFF7CC
:102140002FF82046FFF7BCFF0446FFF739F8FFF7EA
:1021500087FD0B4B1A689A4204D0996993688A6884
:102160009A4204D3002383F31188204610BD05480A
:10217000FEF7A6FF002383F31188204610BD00BFA1
:10218000300800203060000800000000000000005F
:1021900038B504460D46FFF78BF8BCB1E16B94F8F7
:1021A000203029430A2BE1630CD00B2B00D038BD23
:1021B000A36A8B43FBD10023A3622046BDE83840CD
:1021C000FFF72EB9A36A1942F5D1F0E70148FEF7EF
:1021D00077FFE3E7906000080000000000000000C7
:1021E00070B506460D46FFF763F88EB13468A64217
:1021F0000DD0E3682B43E36015B12269134203D08D
:10220000D4E90101FFF7C4FF2468A642F1D170BDF3
:102210000148FEF755FFE9E7706000080000000084
:1022200030B4029C046200250A4485600261C0E962
:102230000000C160C0E90511C36130BC704700BF38
:1022400038B504460D46FFF733F8FFF731F8D4E907
:1022500005239A42A36810D00133511CA360616129
:102260001570D4E904329A4201D3E36863612046D1
:102270000021FFF715FC002038BD002BECD06FF0DB
:10228000030038BD00000000000000000000000056
:1022900070B5202304460E4683F31188FFF7D8FC5F
:1022A000FEF77EFFE36933B12046984703E0FFF76E
:1022B000DFFB051E12DBFEF7FBFFA368314620465D
:1022C000002BF4D0A16920694A1C013B8242A36023
:1022D000A26128BFE3680D7828BFA361FEF770FFF5
:1022E000FFF7BEFC0A4B1A689A4204D099699368BA
:1022F0008A689A4204D3002383F31188284670BD6C
:102300000448FEF7DDFE002383F31188284670BDE4
:1023100030080020A060000800000000000000005D
:102320002DE9F84F044689461D46D0F81C80924698
:10233000002A59D04FF0200B8BF31188FFF788FC4F
:10234000FEF72EFF2A4E0027B8F1000F05D02046D9
:10235000C04702E0FFF78CFB68BBFEF7A9FFA3684C
:1023600029462046002BF5D0A269013B511CA161F2
:10237000A360137809F8013B2369A2699A4224BF3C
:10238000E368A361FEF71CFFFFF76AFC3368B34202
:1023900004D0B2699B6892689A4221D3002383F3E8
:1023A00011880137BA4518D08BF31188FFF750FC1C
:1023B000FEF7F6FEC8E7FEF703FFFFF751FC3368B0
:1023C000B34207D0B2699B6892689A4202D2094828
:1023D000FEF776FE002383F311883846BDE8F88FB8
:1023E0000448FEF76DFED9E70348FEF769FEA1E752
:1023F00030080020A0600008B06000080000000065
:1024000030B4029C82608D18C0E90315C0E907341E
:10241000C0E90000C0E9051130BC704700000000B1
:10242000F8B504460F461646202383F31188FFF7BC
:102430000FFCFEF7B5FE03E0FFF71AFB051E27DBD6
:10244000FEF736FFA36831462046002BF4D06269C0
:10245000013B511C6161A3601770D4E904329A42B8
:1024600024BFE3686361E36903B19847FEF7A8FE00
:10247000FFF7F6FB134B1A689A4204D099699368E8
:102480008A689A4219D3002585F311882846F8BD39
:10249000FEF796FEFFF7E4FB0A4B1A689A4207D054
:1024A000996993688A689A4202D20748FEF708FE43
:1024B000002383F311882846F8BD0348FEF700FE89
:1024C000E1E700BF30080020A06000080000000025
:1024D00038B50446FEF7ECFEFEF7EAFED4E9053215
:1024E0009342A3680FD02069511C0133A360A161FE
:1024F0008142157801D3E368A36120460021FFF7EC
:10250000CFFA284638BD002BEDD06FF0020038BD61
:102510002DE9F04F83B004460D460193D0F81C908E
:102520001646002A5CD04FF0200A8AF31188FFF784
:102530008FFBFEF735FE4FF000082D4FC346FEF728
:10254000B7FEA368002B32D06269013B511C616168
:10255000A3602B781370D4E904329A4224BFE36855
:1025600063610135B9F1000F01D02046C847FEF77D
:1025700027FEFFF775FB3B68BB4207D0BA699B6833
:1025800092689A4202D21B48FEF79AFD8BF311889B
:10259000013E08F101081FD08AF31188FFF758FBAC
:1025A000FEF7FEFDFEF784FEA368002BCCD1019957
:1025B0002046FFF75DFA0028C1D0FEF701FEFFF7C5
:1025C0004FFB3B68BB4204D0BA699B6892689A4251
:1025D0000AD3002383F31188404603B0BDE8F08F8F
:1025E0000548FEF76DFD9EE70248FEF769FDF0E73E
:1025F00030080020A0600008C06000080000000053
:10260000054A064B0648074922F0070223F0070354
:1026100002600B60704700BF7F180020000002209E
:10262000A40E0020A00E002000000000000000000A
:1026300038B50446202383F31188FFF709FBFEF722
:10264000AFFDFEF735FE134A134B15681B68E01DFE
:1026500020F007005B1B98429ABF401910600025CC
:10266000FEF7AEFDFFF7FCFA0C4B1A689A4204D055
:10267000996993688A689A4204D3002383F3118886
:10268000284638BD0648FEF71BFD002383F311885A
:10269000284638BDA40E0020A00E002030080020DF
:1026A000E0600008000000000000000000000000E2
:1026B000044B054A1A6003F110000022C3E902220C
:1026C000FFF7E6BAA80E002031260008000000003F
:1026D00080B4094A536823F0010300AF5360EFF35D
:1026E0000983683383F30988002383F31188BD4687
:1026F0005DF8047B704700BF30EF00E00000000091
:1027000098B5202300AF83F31188114B5B6813F455
:10271000006302D183F3118898BDF1EE103AEFF314
:1027200009840C4B4FF08072DB6844F8083C44F895
:102730004C2CA4F1680383F30988FEF769FF18B1F4
:10274000054B44F8503C98BD044B44F8503C98BDB0
:1027500000ED00E030EF00E0E1020008F4020008C4
:1027600008B501F0B5F8094801F05AF900F010F881
:1027700000F0AEF800F01CFA00F0C2FA00F0B0FA77
:1027800002F0BEFABDE8084000F0B2BA706400087A
:1027900002F0EEB8000000000000000000000000A1
:1027A0000122002302704360704700BF0000000058
:1027B00038B50D46044660B359B3202383F311881E
:1027C000FFF746FAFEF7ECFC2378013B012B02D918
:1027D0001248FEF775FC2046656002F0D9F8022326
:1027E0002370FEF7EDFCFFF73BFA0D4B1A689A4297
:1027F00004D0996993688A689A4203D3002383F3CB
:10280000118838BD0748FEF75BFC002383F311886D
:1028100038BD0248FEF754FCCFE700BF0061000856
:1028200030080020F06000080000000000000000F8
:1028300038B504460D46FEF73BFD6CB12378022BFC
:1028400002D00748FEF73CFC0323294623702046AC
:10285000BDE8384002F0DCB80148FEF731FCEDE796
:1028600010610008000000000000000000000000EF
:1028700038B504460D46202383F31188FFF7E8F9A5
:10288000FEF78EFC29462046FFF7D2FFFEF798FCA4
:10289000FFF7E6F9094B1A689A4204D099699368E0
:1028A0008A689A4203D3002383F3118838BD044811
:1028B000FEF706FC002383F3118838BD30080020A2
:1028C000F0600008000000000000000000000000B0
:1028D00001F04EBB000000000000000000000000FE
:1028E00001220023027043600C30FFF7D1B900BF12
:1028F00038B50D46044670B369B323785A1E012AD1
:1029000004D9052B02D01648FEF7DAFB202383F307
:102910001188FFF79DF9FEF743FC2046656001F042
:102920003FFB02232370FEF74BFCFFF799F90D4B99
:102930001A689A4204D0996993688A689A4203D3C4
:10294000002383F3118838BD0748FEF7B9FB002345
:1029500083F3118838BD0248FEF7B2FBCDE700BF14
:1029600040610008300800203061000800000000CD
:1029700010B5044660B323785A1E012A04D9052BEA
:1029800002D01548FEF79CFB202383F31188FFF744
:102990005FF9FEF705FC204601F02AFC01232370B5
:1029A000FEF70EFCFFF75CF90C4B1A689A4204D054
:1029B000996993688A689A4203D3002383F3118844
:1029C00010BD0748FEF77CFB002383F3118810BD80
:1029D0000148FEF775FBCEE7506100083008002083
:1029E000306100080000000000000000000000004E
:1029F00010B5044608B1A06810BD0248FEF760FBA0
:102A0000A06810BD60610008000000000000000028
:102A10002DE9F04685B00E46924699460D9D044636
:102A200008B1002938D12448FEF74AFB2378022B4D
:102A300002D02148FEF744FB202383F31188FFF7DF
:102A400007F9FEF7ADFB31460E9E032000272070EC
:102A5000A760CDE901560C9D009552464B46204695
:102A600001F00EFC431C0CBF052302232370054616
:102A7000FEF7A6FBFFF7F4F8104B1A689A4204D051
:102A8000996993688A689A4212D3002383F3118864
:102A9000284605B0BDE8F086002BC4D0002AC2D07D
:102AA00015B10C9B002BBED00E9B002BBED1BAE7FC
:102AB0000348FEF705FBE8E77061000830080020D6
:102AC000306100080000000000000000000000006D
:102AD00010B5044628B104F10C00BDE81040FFF722
:102AE00097B90448FEF7ECFA04F10C00BDE8104079
:102AF000FFF78EB9906100080000000000000000A0
:102B000010B5044628B104F10C00BDE81040FFF7F1
:102B1000A7B90448FEF7D4FA04F10C00BDE8104050
:102B2000FFF79EB9A061000800000000000000004F
:102B30000C30FFF7F5BB00BF0000000000000000F4
:102B40000C304FF0FF33FFF7EBBB00BF000000007D
:102B50003030FFF7DDBC00BF0000000000000000C7
:102B600030304FF0FF33FFF7D3BC00BF0000000050
:102B70000C30FFF78DBB00BF00000000000000001C
:102B80000C304FF0FF31FFF783BB00BF00000000A7
:102B90003030FFF745BC00BF00000000000000001F
:102BA00030304FF0FF32FFF73BBC00BF00000000A9
:102BB00002F046B800000000000000000000000025
:102BC00070B50E4B044682B040F8043B01260094D9
:102BD00015460B46606004F1540104F10C002672A6
:102BE0001022FFF71DFB00942B4604F1640104F151
:102BF00030001022FFF704FC02B070BDE061000855
:102C000038B50D46044658B3202383F31188FFF7E7
:102C10001FF8FEF7C5FA237A013B012B02D91248AF
:102C2000FEF74EFA2946204602F01AF802232372D4
:102C3000FEF7C6FAFFF714F80C4B1A689A4204D054
:102C4000996993688A689A4203D3002383F31188B1
:102C500038BD0748FEF734FA002383F3118838BDE6
:102C60000148FEF72DFACFE7C061000830080020C8
:102C7000B06100080000000000000000000000003B
:102C800038B504460D46FEF713FBE4B1FEF710FB22
:102C900063693BB1294604F10C00FFF7D1FA002823
:102CA0000BDB38BD04216018FFF79AFA294604F1BE
:102CB0000C00FFF7C5FA0028F3DA201D8021BDE8DB
:102CC0003840FFF78DBA0248FEF7FAF9DEE700BF99
:102CD000D0610008000000000000000000000000BB
:102CE000704700BF0000000000000000000000006E
:102CF00001F0C6BE0000000000000000000000005F
:102D000001F036BB000000000000000000000000E1
:102D1000002301220270C36183620362C3624362C3
:102D20000363C0E9013370470000000000000000A9
:102D300070B504460D46FEF7BBFA84B1012000FAD7
:102D400005F362899BB212EA030600D070BD1343FB
:102D500020466381294601F083FD304670BD02485C
:102D6000FEF7AEF9EAE700BF0062000800000000CD
:102D700070B504460D46FEF79BFA84B1012000FAB7
:102D800005F322899BB212EA030600D070BD1343FB
:102D900020462381294601F073FD304670BD02486C
:102DA000FEF78EF9EAE700BF20620008000000008D
:102DB000002202210170C264C0E90222C0E904229B
:102DC000826180F8342001F0FBBA00BF00000000EF
:102DD00070B50023044680F8343000F1440201F05D
:102DE00087FB63689B68002B35D02046984790B3DB
:102DF000E16B94F8443094F84B0094F84A2042EA8E
:102E000000228A422CBF0A46E2631806E16800F1FC
:102E10009F80002A7DD08B69A16B0025042084F857
:102E20003400D9605A601D709D602946204601F02B
:102E30006FFB202383F31188FEF71AFFFEF7D8F902
:102E400029462046FFF774FFFEF7EAF9FEF718FF60
:102E500085F3118870BD94F8443013F0600518466E
:102E600011D00021204601F033FD0021204601F061
:102E70001FFD63681B6813B1052120469847062390
:102E800084F8343070BD94F8451003F07F0242EAB4
:102E90000122B2F5407F00F0098117D9B2F5C06F69
:102EA00000F0EB8040F28E80B2F5106F68D040F6F3
:102EB00002418A4200F0C780B2F5006FD1D104F11F
:102EC0004F0201212564C4E90E2194E7022A00F093
:102ED000A08040F29680B2F5807F64D0B2F5817F09
:102EE000BFD194F84630002BBBD194F8483013F092
:102EF0000F0107D01E06204600F1F08001F0F8FC1B
:102F000094F844000023C4E90E3323640306E16807
:102F10002BD44B690025052284F83420C3E90155E0
:102F200029461D70DD60204601F06AFB202383F3F3
:102F30001188FEF79DFEFEF75BF929462046FFF754
:102F400017FFFEF76DF9FEF79BFE85F3118870BD44
:102F50005AB14B69A16B0025012084F83400D96077
:102F60005A601D709D602946DDE78B6900250322AC
:102F700084F8342029461D70DD60C3E9015555E70A
:102F800094F8463084F84F30002B40F09E800323A5
:102F9000237063681B68002BB4D020460221984739
:102FA00094F84400AEE794F84630012B7FF459AF13
:102FB000B4F84C30A56323F00203C4E90F55A4F81C
:102FC0004C30A3E740F202339A4243D0B2F5A06FEF
:102FD0007FF447AFB4F84430B3F5A06F92D194F8C2
:102FE000463084F84E30204601F052FA63681B6880
:102FF00013B1012120469847032394F8440023701D
:1030000080E7EAB904F14C0002212264C4E90E0110
:10301000F1E694F8483003F00F011B06204657D420
:1030200001F046FA012857D002287FF41AAF304B3E
:10303000A36302210023C4E90F1394F84430DAE6B5
:10304000012A7FF40EAF2B4AA26302210022C4E9B9
:103050000F12D0E694F84630002B7FF402AF94F8BC
:10306000483013F00F013FF44DAF1D0620463AD40F
:1030700001F01EFC94F8440044E794F849006168AC
:1030800094F848304E6894F8462094F8471043EA84
:1030900000232046B04700283FF4E3AED0E90013F8
:1030A0002564C4E90E3194F84430A4E694F846301F
:1030B000012B7FF4D6AEB4F84C30A56343F0020385
:1030C000C4E90F55A4F84C3020E70423237060E7CF
:1030D00001F0FEF90128A7D1074BA9E701F018FC80
:1030E00094F844000EE701F0F3FB94F8440009E77C
:1030F0006062000880620008706200080000000042
:1031000038B590F834300446062B52D8DFE803F087
:1031100004204F04041907003748FDF7D1FF0021B0
:10312000204601F0D5FB0021204601F0C1FB636879
:103130001B6813B1052120469847062384F83430D4
:1031400038BD036C03B19847002384F8343038BD90
:1031500090F84B0094F84A20E16BE36842EA0022C1
:10316000914205D21A8AB1FBF2F502FB15152DB377
:103170009B690025032284F8342029461D70DD60F8
:10318000C3E90155204601F0C3F9202383F31188D8
:10319000FEF76EFDFEF72CF829462046FFF7C8FD26
:1031A000FEF73EF8FEF76CFD85F3118838BDC36865
:1031B000DEE71148BDE83840FDF782BF5B6929466C
:1031C0001D70DD60C3E90155204601F019FA202386
:1031D00083F31188FEF74CFDFEF70AF829462046D6
:1031E000FFF7C6FDFEF71CF8FEF74AFD85F31188D0
:1031F000022384F8343038BD40620008000000002B
:1032000038B590F834300446062B45D8DFE803F093
:1032100004040438190407002248FDF751FF002177
:10322000204601F055FB0021204601F041FB636878
:103230001B6813B1052120469847062384F83430D3
:1032400038BDC3685B690025052280F83420294613
:103250001D70DD60C3E9015501F0D2F9202383F32D
:103260001188FEF705FDFDF7C3FF29462046FFF74D
:103270007FFDFDF7D5FFFEF703FD85F3118838BD0F
:10328000C3689B699B68002BDAD1036C03B1984734
:10329000002384F8343038BD0248BDE83840FDF7DB
:1032A0000FBF00BF506200080000000000000000D7
:1032B000430910B49B0000F1604404F5614403F13C
:1032C0006043090103F5614300F01F000122C9B208
:1032D00084F8001302FA00F0C3F880015DF8044B93
:1032E00018607047000000000000000000000000AF
:1032F0000849430910B4203300F01F040122084498
:10330000A240002441F8232080F800435DF8044BDC
:10331000704700BF00E100E0000000000000000076
:103320000C2838B504460D4602D90548FDF7C8FEFD
:1033300004F1604000F56D402D01EDB2057638BD19
:103340009062000800000000000000000000000083
:1033500008B5FEF755FCFDF77BFF084B084A1968D6
:1033600001F03D01996013680BB150689847FDF773
:1033700087FFBDE80840FFF7C3B900BF0060024007
:10338000D00E00200000000000000000000000003F
:1033900010B5FEF735FCFDF75BFF094B09481968CE
:1033A0008268890901F03D018C019C600AB1C06806
:1033B0009047FDF765FFBDE81040FFF7A1B900BFDA
:1033C00000600240D00E002000000000000000005D
:1033D00010B5FEF715FCFDF73BFF094B09481968CE
:1033E0000269090C01F03D010C049C600AB14069BE
:1033F0009047FDF745FFBDE81040FFF781B900BFDA
:1034000000600240D00E002000000000000000001C
:1034100010B5FEF7F5FBFDF71BFF094B09481968CE
:103420008269890D01F03D018C059C600AB1C0697B
:103430009047FDF725FFBDE81040FFF761B900BFD9
:1034400000600240D00E00200000000000000000DC
:1034500008B5FEF7D5FBFDF7FBFE084B0848596899
:10346000026A01F03D01D9600AB1406A9047FDF758
:1034700007FFBDE80840FFF743B900BF0060024006
:10348000D00E00200000000000000000000000003E
:1034900010B5FEF7B5FBFDF7DBFE094B094859688F
:1034A000826A890901F03D018C01DC600AB1C06AC1
:1034B0009047FDF7E5FEBDE81040FFF721B900BFDA
:1034C00000600240D00E002000000000000000005C
:1034D00010B5FEF795FBFDF7BBFE094B094859688F
:1034E000026B090C01F03D010C04DC600AB1406B79
:1034F0009047FDF7C5FEBDE81040FFF701B900BFDA
:1035000000600240D00E002000000000000000001B
:1035100010B5FEF775FBFDF79BFE094B094859688E
:10352000826B890D01F03D018C05DC600AB1C06B36
:103530009047FDF7A5FEBDE81040FFF7E1B800BFDA
:1035400000600240D00E00200000000000000000DB
:1035500008B5FEF755FBFDF77BFE084B08481968D8
:10356000026C01F03D0199600AB1406C9047FDF793
:1035700087FEBDE80840FFF7C3B800BF0064024003
:10358000D00E00200000000000000000000000003D
:1035900010B5FEF735FBFDF75BFE094B09481968CE
:1035A000826C890901F03D018C019C600AB1C06CFC
:1035B0009047FDF765FEBDE81040FFF7A1B800BFDA
:1035C00000640240D00E0020000000000000000057
:1035D00010B5FEF715FBFDF73BFE094B09481968CE
:1035E000026D090C01F03D010C049C600AB1406DB4
:1035F0009047FDF745FEBDE81040FFF781B800BFDA
:1036000000640240D00E0020000000000000000016
:1036100010B5FEF7F5FAFDF71BFE094B09481968CE
:10362000826D890D01F03D018C059C600AB1C06D71
:103630009047FDF725FEBDE81040FFF761B800BFD9
:1036400000640240D00E00200000000000000000D6
:1036500008B5FEF7D5FAFDF7FBFD084B0848596899
:10366000026E01F03D01D9600AB1406E9047FDF74E
:1036700007FEBDE80840FFF743B800BF0064024002
:10368000D00E00200000000000000000000000003C
:1036900010B5FEF7B5FAFDF7DBFD094B094859688F
:1036A000826E890901F03D018C01DC600AB1C06EB7
:1036B0009047FDF7E5FDBDE81040FFF721B800BFDA
:1036C00000640240D00E0020000000000000000056
:1036D00010B5FEF795FAFDF7BBFD094B094859688F
:1036E000026F090C01F03D010C04DC600AB1406F6F
:1036F0009047FDF7C5FDBDE81040FFF701B800BFDA
:1037000000640240D00E0020000000000000000015
:1037100010B5FEF775FAFDF79BFD094B094859688E
:10372000826F890D01F03D018C05DC600AB1C06F2C
:103730009047FDF7A5FDBDE81040FEF7E1BF00BFD3
:1037400000640240D00E00200000000000000000D5
:103750000E490F4A0F48002310B40B600E4C194657
:1037600001E052F80C0C016044F833100133102BC7
:1037700002F10C02F5D10949094A5DF8044B4FF0FA
:10378000FF338B60CB609360D3607047500F002095
:10379000FC62000810600240D00E00200060024071
:1037A0000064024000000000000000000000000073
:1037B000F0B5054685B000283FD0254C6F7AD4F887
:1037C00000C0012000FA07F616EA0C0F2AD12148A2
:1037D00046EA0C0600EBC70C16F0FF0F266040F817
:1037E0003720CCF8043004D01B48036B43F400139B
:1037F000036316F47F4F17D12868036823F01F0373
:103800000360046814F00104FBD12F7A6E683D2335
:10381000BB4021273360046047615AB1A87AFFF7A3
:1038200047FD204605B0F0BD0B48036B43F4800311
:103830000363E1E7104605B0F0BD08480191CDE90A
:103840000223FDF73DFCDDE902230199B5E700BF46
:10385000500F0020D00E002000380240B062000857
:1038600038B5044628B3154D617A2A6801238B4088
:1038700013421AD0A07AFFF73BFD617A2B68012230
:103880008A4023EA020313F0FF0F2B6004D10C4996
:103890000A6B22F400120A6313F47F4F04D1084A22
:1038A000136B23F48003136338BD0648FDF708FC4F
:1038B000E0E70448FDF704FCD5E700BF500F002007
:1038C00000380240D0620008000000000000000044
:1038D000174B4FF0FF311A69002210B419611A61B9
:1038E000586959615A61186A124C60F08050186228
:1038F0001A62586A59625A62196C41F0805119640F
:10390000216841F480712160196F01F44071B1F5B3
:10391000007F03D04FF4803119671A67054A5DF8BC
:10392000044B536823F400735360FFF711BF00BFCB
:10393000003802400070004000000000000000005D
:10394000304B314A4FF080504FF4404118641160C1
:103950001A6842F001021A601A689107FCD599684A
:10396000284A21F00301996099689960936813F0DF
:103970000C03FBD11068234900F0F900106093603C
:10398000136843F4A02313600B689A03FCD54B6FB4
:103990001C4A43F001034B67536F9B07FCD51B4B3D
:1039A00053601368184943F0807313604B685804E0
:1039B000FCD5144A13689901FCD5154BC2F8843024
:1039C0001368104943F0806313600B681B01FCD53A
:1039D000104B114A8A6040F205721A608B68094ADE
:1039E00043F002038B60936803F00C03082BFAD1B9
:1039F000536C43F480435364536E43F480435366E3
:103A0000704700BF00380240007000401854400763
:103A100000300060003C02400094083800000000C4
:103A20006849694A694B70B40D6B40F2FF16354323
:103A30000D630C6D34430C65416851608168916081
:103A4000C168D16001695161416911628169516246
:103A500001681160026A5A60426A9A60826ADA609A
:103A6000C26A5A61026B1A62426B5A62C2691A6078
:103A7000C26BC3F80424026CC3F80824426CC3F878
:103A80000C24826CC3F81424C26CC3F82024026D89
:103A9000C3F82424826BC3F8002403F50063826D0D
:103AA0005A60C26D9A60026EDA60426E5A61826E2E
:103AB0001A62C26E5A62426D1A60426FC3F80424E1
:103AC000826FC3F80824C26FC3F80C24D0F880209A
:103AD000C3F81424D0F88420C3F82024D0F8882018
:103AE000C3F82424026FC3F80024D0F89020C3F850
:103AF0000428D0F89420C3F80828D0F89820C3F8F8
:103B00000C28D0F89C20C3F81428D0F8A020C3F8C3
:103B10002028D0F8A420C3F82428D0F88C20C3F89B
:103B2000002803F54063D0F8AC205A60D0F8B020EC
:103B30009A60D0F8B420DA60D0F8B8205A61D0F892
:103B4000BC201A62D0F8C0205A62D0F8A8201A60AF
:103B5000D0F8C820C3F80424D0F8CC20C3F8082437
:103B6000D0F8D020C3F80C24D0F8D420C3F8142403
:103B7000D0F8D820C3F82024D0F8DC20C3F82424BF
:103B8000D0F8C420C3F80024D0F8E420C3F80428F7
:103B9000D0F8E820C3F80828D0F8EC20C3F80C28A7
:103BA000D0F8F020C3F81428D0F8F420C3F8202867
:103BB000D0F8F820C3F82428D0F8E020C3F8002873
:103BC00070BC704700380240000002400004024010
:103BD0002DE9F04F02F0030CC2F38007C2F3C106D7
:103BE000C2F341150024C2F3C3124FF00F0E4FF081
:103BF00001094FF0030830E0D0F820B00BEA0A0AC0
:103C00004AEA03030362436809FA04FA23EA0A034F
:103C10003B4343606300D0F808A008FA03F3DB439A
:103C20000AEA030A4AEA060AC0F808A0D0F80CA07B
:103C300003EA0A0A4AEA050AC0F80CA0D0F800A074
:103C400003EA0A0343EA0C03036049081BD07F0020
:103C5000B600AD004FEA8C0C013404F007039B0062
:103C60000EFA03FA11F0010F02FA03F36FEA0A0ADF
:103C7000EBD0072CC0D9D0F824B00BEA0A0A4AEAE4
:103C800003034362BFE7BDE8F08F00BF0000000000
:103C900011F00C0F38B50546846B12D1696B0A68B8
:103CA000136823F01F0313601368DB07FCD4087A42
:103CB0004A683D2383401360636843F40073636084
:103CC00038BD0248FDF7FCF9E8E700BFF0630008E3
:103CD00011F00C0F70B50646856B2DD1326B136851
:103CE000196821F01F0119601C6814F00104FBD150
:103CF000117A52683D238B4013606B6823F4805324
:103D00006B602B6823F480632B602B6843F4007393
:103D10002B60202383F31188FDF7AAFFFDF768FAD3
:103D2000214606F12000FDF78BFEFDF779FAFDF73D
:103D3000A7FF84F3118870BD0148FDF7C1F9CDE7F5
:103D4000F063000800000000000000000000000018
:103D5000F8B5424DFDF754FFFDF77AFAAC6B404AD7
:103D6000A369666946EA034323F07F43934254D034
:103D700024D8073A934244D00132934214D1626866
:103D80002B6B22F400721B6862601A6842F0010219
:103D90001A60626842F4805262605B68012B03D84B
:103DA000236823F48063236016F00A0F18BFA36909
:103DB000FDF766FABDE8F840FEF7A2BC294A934237
:103DC00014D002329342EFD12B6B1B685F684FB364
:103DD000AA8C236842F0010243F4A063AA84236002
:103DE000FDF74EFABDE8F840FEF78ABC63686A6BDF
:103DF00023F4007312686360136843F001031360D7
:103E0000D2E7AB8C1A0A0BD003F0010343F0F003A6
:103E100002F0060213432361C6E7AB8CC3F34703EA
:103E20002361C1E7636823F400736360236843F48C
:103E300000732360202383F31188FDF719FFFDF73A
:103E4000D7F9394605F12000FDF7FAFDFDF7E8F94D
:103E5000FDF716FF87F31188A6E700BF540F002077
:103E600008000300820007000000000000000000BE
:103E7000F8B53C4CA36B5D69FDF7C2FEFDF7E8F9B0
:103E8000D4E90D7005F45F433A68DB43436113687E
:103E900023F01F031360A9B21368DB07FCD43A7A3E
:103EA000266B7F683D23934032683B60136823F0A4
:103EB0001F0313601368DF07FCD4377A72683D2351
:103EC000BB40136011F4807318BF01238A05A360FF
:103ED00044BF43F00203A3604F050AD5426822F4B1
:103EE00000724260026843F0040342F40072026010
:103EF000A3600E0544BF43F00803A360480444BF19
:103F000043F02003A360CA042DB21DD543F0100373
:103F1000002DA36022DB202383F31188FDF7A8FE88
:103F2000FDF766F96FF001010F48FDF789FDFDF718
:103F300077F9FDF7A5FE002383F31188FDF7A0F9BB
:103F4000BDE8F840FEF7DCBB002D07DB002BE2D11B
:103F5000FDF796F9BDE8F840FEF7D2BB43F0400309
:103F6000A360D8E7540F0020740F00200000000069
:103F700010B5074C2046FEF7B3FC064B064AA26379
:103F8000002103F154022162C4E90C3210BD00BFCC
:103F9000540F0020F06200080054004000000000B0
:103FA000037840F256422DE9F041012BC26240F203
:103FB000164204468262856B7ED02F46D4E90C12ED
:103FC0006368086811685E6893F808807A4A05F1AA
:103FD000100383608B604FF400412960731E002141
:103FE000296093424FF41061696002D97348FDF76C
:103FF00067F87B68724A4FF6C0710B407B607B6844
:10400000964243F02A037B6035DCB8F1010F40F0A3
:1040100084806C4A4FEA4608B2FBF8F308FB13238E
:10402000002B40F08A80674EB6FBF8F6B6B2032E3E
:1040300040F28D802B23B6F5805F3B62C6F30B0800
:1040400002D35E48FDF73CF86368A16B1A78C7F8A5
:104050001C800B68022A9BB269D0032A64D0012A13
:1040600002D123F00A039BB20B602B6843F00103DB
:104070002B60BDE8F081544B9E4252DCA8F1020354
:10408000012B6CD8B8F1020F71D14E4A06EB4606EF
:10409000B2FBF6F306FB1323002B40F08980494B5B
:1040A000B3FBF6F800231FFA88F848EA03080D234B
:1040B00048F400483B62C7E7444EB0427FF47DAF0E
:1040C000434B006B196A434A41F4001100271962FF
:1040D0001F6205212346FFF76BFB002864D13B4B91
:1040E0003D4A706B0521FFF763FB002858D1384A21
:1040F000136C43F40013136405211F20FFF7D8F855
:1041000005212020FFF7D4F8B26A3449F36AB76B6F
:104110000A430B43C6E90A2350E72848FCF7D0FFBF
:1041200077E74FF000088FE743F00A039CE723F09E
:1041300008039BB243F0020396E72048214EFCF7A8
:10414000BFFFB6FBF8F6B6B2032E3FF673AF1B48BF
:10415000FCF7B6FF2B23C6F30B083B6274E7174846
:10416000FCF7AEFF0D233B6248F6FF786CE7B8F131
:10417000030FF7D1134A06EB860606EB8606B2FB61
:10418000F6F306FB13233BB90E4BB3FBF6F64FF4E5
:1041900080431FFA86F888E70848FCF791FFF3E7A9
:1041A0000F48FCF78DFFA2E70D48FCF789FF96E763
:1041B0000248FCF785FF72E7FF083D00C063000876
:1041C000A086010080DE8002801A0600540F0020C5
:1041D00000380240D13C0008913C00080000030276
:1041E000E063000800000000000000000000000084
:1041F00038B50378012B2DD0D0E90D1300240A68BF
:104200004FF400451D601C605C605C61136823F026
:104210001F0313601368DC07FCD40A7A056B4C6833
:104220003D2393402A682360136823F01F03136023
:104230001368DB07FCD40446287A6A683D23834070
:1042400013600846FFF70CFB206BFFF709FB084BD8
:104250009C4200D038BD1F20FFF74AF82020FFF70E
:1042600047F8044A136C23F40013136438BD00BFED
:10427000540F002000380240000000000000000041
:104280002DE9F84F814649000020364CA9F824104A
:10429000C9F8080098469246D9F83850DDF830B091
:1042A000DDE90A67FCF78CFFFDF7DAFC2368A3421F
:1042B00004D0A2699B6892689A423FD3002080F3A1
:1042C0001188D9E90C321268D9F82C101B681160DA
:1042D000D9F82810C2F80CA0C2F804801960DE607A
:1042E0005F60D4F82880DFF880A00646202710E021
:1042F000FCF766FFFDF7B4FC2368A34207D0A26970
:104300009B6892689A4202D25046FCF7D9FE86F327
:10431000118887F31188FDF79BFCFCF741FFAB691F
:104320009A0702D42B689B050CD5A36AA3EB08035C
:10433000312BDDD94FF0FF30BDE8F88F0A48FCF78C
:10434000BFFEBBE76B6843F400736B602B6843F4FC
:104350008073594609F120002B60BDE8F84FFDF746
:104360004FBB00BF30080020B06300080000000011
:1043700038B50E4C2046FEF7CBFC04F1D0054FF0CB
:10438000A0430B4A2365294604F1680000236265B7
:10439000FF22C4E91833FDF713FA284604F5187113
:1043A0005522BDE83840FDF70BBA00BF900F002042
:1043B0004064000800000000000000000000000051
:1043C000F8B5056D202306462B612C6914F02004F6
:1043D000FBD10C20FCF7C4FE776DBA6823464FF082
:1043E0000060541CFF2105EB431201339C42C2F8CC
:1043F0000009C2F8000BC2F80819C2F8081BF2D174
:104400003B684FF001124FF0FF31C5F81818C5F89E
:104410001C28B3653B68326D6B621023136114690D
:1044200014F01004FBD10C20FCF79AFED5F80038EC
:10443000144A154923F4FE63C5F80038AB6943F408
:10444000402343F01003AB610923C5F81038C5F8C9
:104450001438F160C5F8104BC5F8002BC5F81049A9
:10446000C5F80029D6E9152404F11003B365526894
:10447000934202D90548FCF723FE44F48014AC6251
:10448000F8BD00BF40800010106400080064000800
:10449000026D90F84E10D2F8003823F4FE6343EA20
:1044A0000113C2F80038704700000000000000004F
:1044B0005831036D49015B5813F4004004D013F4E4
:1044C000001F14BF01200220704700BF0000000041
:1044D0004831036D49015B5813F4004004D013F4D4
:1044E000001F14BF01200220704700BF0000000021
:1044F00000EB8101CB681B6A19685B68536011602F
:10450000704700BF00000000000000000000000035
:1045100000EB810370B4DE68B5696A682A6129B965
:10452000402A03D94022094C6A6001E042F0C044AD
:10453000758A006D6B1E00EB41111344B3FBF5F35C
:1045400044EAC343C1F8103B70BC704740000060B0
:104550002DE9F041284E376D07EB40130546D3F89F
:10456000084BC3F8084B20070AD5D7F814381907A9
:1045700006D506EB85032946DB6830465B6898471D
:10458000E20736D5D7F81438DB0732D506EB8503BA
:10459000D9688B6958681A6990420CD37389CC68C2
:1045A00015480122AA4023EA0203738129462346C3
:1045B000BDE8F0411847121A0024C3E90124294636
:1045C0000D48FFF7A5FF202383F31188FDF750FB6B
:1045D000FCF70EFE336D03EB4515D5F8003B43F0B9
:1045E0008063C5F8003BFCF71BFEFDF749FB84F335
:1045F0001188BDE8F08100BF900F0020000000008E
:1046000000EB810310B4DC68026D606943680361EC
:104610009BB169B1208A5DF8044B02EB4112411E47
:104620001944B1FBF0F143EAC143C2F810397047B5
:10463000402B84BF40234360ECE702EB41124FF470
:104640000023C2F810395DF8044B704700000000E9
:104650002DE9F041384E356D05EB40130746D3F890
:104660000849C3F80849E10716D5D5F81038DA0724
:1046700012D506EB8003D9684B6958681A699042D5
:1046800032D33389D1F808800122BA4023EA0203E9
:10469000338139463046C047230606D50123D5F875
:1046A000342803FA07F7174201D1BDE8F08120232F
:1046B00083F31188FDF7DCFAFCF79AFDD5F834286E
:1046C000F36D1E4822EA0702C5F834281F43002173
:1046D000F765FDF7B5F9FCF7A3FDFDF7D1FA002367
:1046E00083F31188BDE8F081121A4FF00008C3E986
:1046F000012839463046FFF783FF202383F31188D2
:10470000FDF7B6FAFCF774FD326D02EB471001239A
:10471000D0F8001941F00441C0F80019D2F834185B
:10472000BB400B43C2F83438FCF77AFDFDF7A8FA1A
:1047300088F31188B0E700BF900F0020F00F002031
:1047400070B5424DFDF75CFAFCF782FD2E6D746981
:10475000B3691C40E104746128D4A20448BFD6F8B0
:104760000838230704D56B68DB680BB137489847D6
:10477000E50626D46003D6F8185807D5E9075BD4B8
:10478000AA074ED46B0751D42E075BD4240307D558
:10479000E80336D4A90339D46A033CD42B0327D4C5
:1047A000FCF76EFDBDE87040FDF7AABF2846FEF796
:1047B000FFFA6B681B68002BCFD000212846984772
:1047C000CBE7202383F31188FDF752FAFCF710FDA5
:1047D000B3691F4823F01003B3610021FDF730F9DE
:1047E000FCF71EFDFDF74CFA002383F31188C1E7A7
:1047F0000320FFF7ADFEFCF743FDBDE87040FDF779
:104800007FBF0020FFF7A4FEA903C5D50120FFF755
:104810009FFE6A03C2D50220FFF79AFE2B03BFD585
:10482000E6E70120FFF714FF6B07ADD50220FFF785
:104830000FFF2E07AAD505E00020FFF709FFAA0702
:10484000A0D5EEE70320FFF703FF9FE7900F0020BE
:10485000F00F002000000000000000000000000039
:10486000036D03EB4111D1F8003B43F08063C1F8C5
:10487000003B704700000000000000000000000046
:10488000026D10B402EB41140123D4F8000940F08A
:104890000440C4F80009D2F834085DF8044B03FA68
:1048A00001F10143C2F83418704700BF0000000056
:1048B000036D03EB4111D1F8003B43F40013C1F841
:1048C000003B7047000000000000000000000000F6
:1048D000036D03EB4111D1F8003943F40013C1F823
:1048E00000397047000000000000000000000000D8
:1048F000036D03EB4111D1F8003B23F40013C1F821
:10490000003B7047000000000000000000000000B5
:10491000036D03EB4111D1F8003923F40013C1F802
:104920000039704700000000000000000000000097
:1049300008B5FDF765F9FCF78BFC0C4B1878DA68C5
:1049400000210428116107D1022018701160116143
:10495000D16821F0FF01D1605B6804485B6898472B
:10496000FCF78EFCBDE80840FDF7CABE0C12002023
:104970000248034BC360FDF713BF00BF0C120020B9
:10498000004801400000000000000000000000009E
:1049900038B50378012B05461AD0D5E901211368F3
:1049A000B1FBF3F4013CA4B204FB0333994203D0FE
:1049B0001248FCF785FB6A68D168EB6895680020AF
:1049C00021F0FF0118605D609C621861D96038BDFC
:1049D0000B4B9842E1D10B4B5A6C42F480225A6443
:1049E0005A6A002042F480225A62072158621A2033
:1049F000FEF75EFC044BAB60CFE700BF50640008DD
:104A00000C12002000380240007A030A0000000067
:104A10004268C36850680139D96200220121596196
:104A20005A621A6110B1DA680A43DA6005221A6024
:104A3000704700BF00000000000000000000000000
:104A400008B5FDF7DDF8FCF703FC202383F311889C
:104A5000FDF70EF9FCF7CCFBFCF742FBFCF7E0FBA3
:104A6000FDF70EF9002383F31188FCF709FCBDE87C
:104A70000840FDF745BE00BF000000000000000038
:104A8000054B064A5A600021072299600B20082135
:104A90001A60FEF745BC00BF10E000E03F90020046
:104AA000024AD36843F08003D36070470048004057
:104AB0002DE9F8435C4FFDF7A3F8FCF7C9FB7D6FC8
:104AC000D5F80C902B68DA059CB26DD4202383F3C3
:104AD0001188FDF7CDF8FCF78BFB14F02F0F2DD0CC
:104AE000524EA6F1040807E0A00669681DD42C68A0
:104AF000A4B214F02F0F21D02307F5D014F0080F23
:104B00000CBF00218021E00748BF41F02001A2072F
:104B100048BF41F04001630748BF41F4807130460F
:104B2000FDF75EFBA0066968E1D5C9B24046FEF715
:104B3000A7F82C68A4B214F02F0FDDD1FCF770FB9E
:104B4000FDF79EF8002383F3118819F0800F01D040
:104B5000220640D4630605D4FCF792FBBDE8F84377
:104B6000FDF7CEBD202383F31188FDF781F8FCF714
:104B70003FFBFCF79DFBD7E911239A4240D04FF64B
:104B8000BF7309EA03036FF04002EB602A60FCF791
:104B900047FBFDF775F8002383F31188FCF770FBE2
:104BA000BDE8F843FDF7ACBD202383F31188FDF782
:104BB0005FF8FCF71DFB381D4FF40071FDF710FB8B
:104BC0006FF480732B60FCF72BFBFDF759F8002383
:104BD00083F311887AE7202383F31188FDF748F8DF
:104BE000FCF706FB1248FDF773FC002810DB686039
:104BF000FCF716FBFDF744F8002383F31188A9E7BF
:104C0000BB6B002BBBD010210848FDF7E9FAB6E7D3
:104C100008210648FDF7E4FA4FF63F7309EA03035B
:104C200043F04003EB60E3E71C1200202012002059
:104C30004C120020000000000000000000000000F6
:104C400010B5044C044A20460021FDF7B9FF034B80
:104C5000636710BD1C120020A14A000800480040F4
:104C600038B51C4C037A002918BF0C46012B0546A9
:104C700023D06B6F184920688B4219D0174A934292
:104C800016D0174AB2FBF0F29A60A288E088218918
:104C900042F4045242F02C0240F0400041F0010185
:104CA000002418615961DA601C601A685B6838BDBD
:104CB0000C4AB2FBF0F29A60E7E70B4B9842D8D16E
:104CC0000A4A136C43F4802313640C212720FEF757
:104CD000EFFACEE7606400080010014000140140C4
:104CE00080DE800200BD01051C1200200038024059
:104CF000FEF726BE000000000000000000000000DB
:104D0000704700BF0000000000000000000000002D
:104D10002DE9F04F2DED028B064691B08946924663
:104D20004FF0000B99F8001009F1010271B125292B
:104D300012D0336891469B683046984799F8001026
:104D40000BF1010B09F101020029F0D1584611B015
:104D5000BDEC028BBDE8F08F99F801102D2903BF3F
:104D600099F8021009F1020201230023302908BF3B
:104D70005178029306BF01323027202701320024E8
:104D800007E09AF800300AF1040A12F8011B03EB5D
:104D90004004A1F13003DBB2092B154604EB84007B
:104DA000F3D92A29EDD02E294FF000084AD001F07E
:104DB000DF034C2B05F1010950D0A1F14103A1F112
:104DC0004402DBB2342A00F2D381DFE812F01E0283
:104DD000D101D101D101D1011E02D101D101D101F5
:104DE000D101D101CD01D101D101D101D101D10137
:104DF0009701D101D1012702D101D101D101D10106
:104E0000D101D101D101D101D101D1014E011E0247
:104E1000D101AA00D101D1011E02D101D101D101DC
:104E2000D101D101CD01D101D101D1018800D10140
:104E30009701D101D10127029AF800300AF1040A42
:104E400003EB420815F8011BA1F13003DBB2092B7B
:104E500008EB8802F4D92A29EED0A8E72B78DBB337
:104E6000A3F14402342A00F28581DFE812F0A201A6
:104E70008301830183018301A201830183018301F3
:104E8000830183017E018301830183018301830107
:104E90004801830183019F01830183018301830111
:104EA000830183018301830183018301FF00A20148
:104EB00083015B0083018301A201830183018301DC
:104EC000830183017E018301830183013900830112
:104ED0004801830183019F010B46A946C0E7A9460B
:104EE000DAF800500AF1040A002D00F0A6812B78B0
:104EF0002946B8F1000F40F0BF81002B00F0CC81B3
:104F000047F6FE782B4602E0B8F1010803D413F807
:104F1000012F002AF8D15B1AE41A013B01932027E4
:104F2000AFE0A9460AF1070A2AF0070ADAE9000108
:104F3000FBF7E6FD08EE100AB5EEC08AF1EE10FAB6
:104F40000AF1080A00F16E810AAB0393019318EE8F
:104F5000100AFBF739FB08F1FF38B8F1080FCDE96B
:104F6000040100F27381C04B53F828502846FBF728
:104F700009FBBE4BCDE90601A3FB0535EB08099300
:104F80001D46FDEEC87A019BDFF8E0E2CDED087A20
:104F900003F10B0817EE901A4246AEFB0103DB0843
:104FA00003EB830C1846A1EB4C033033DBB202F861
:104FB000013D01460028F0D10199A8EB02080846FE
:104FC000404401E012F8013F01F8013B8142F9D170
:104FD000019A08982E2308F1FF3842440B70019281
:104FE000FBF7E0FA02460B46DDE90401FBF78CF91A
:104FF000DDE90623FBF744FBFBF75AFD019B099A09
:105000009A4903F10D080233002A08BF05460893A8
:105010004246A1FB00C3DB0803EB830E9C46A0EBDA
:105020004E033033A1FB0505DBB2ED0802F8013D6C
:105030006046EED1A8EB0208019908F10200014494
:105040000846089901E012F8013F01F8013B81424E
:10505000F9D1089B039D43449846A8EB050808F145
:10506000FF33A4EB080401930BE0A94610ADDAF876
:10507000003005F8183D0023013C0AF1040A0193B1
:105080002027002C6ADB029B002B7BD16342002C83
:1050900077D0297832682D29926877D0984601E038
:1050A00033689A6839463046904718F10108F7D1BD
:1050B000019A002A4346A344FFF634AE1C46DDF8AD
:1050C0000480336815F8011B9B6808F1FF383046EF
:1050D0009847B8F1FF3FF4D1019B0BF1010B5B4402
:1050E0009B46002C3FF41EAE2546336839469B682C
:1050F00030469847013DF8D1A34413E6A9464FF046
:105100000A0C5AF8042B0DF1330100E00146B2FB02
:10511000FCF50CFB152202F13003392BC8BF02F15C
:105120003703DBB201F8013C481E2A46002DEDD1C1
:105130000DF133050AAAA5EB00080392404401E0F3
:1051400011F8013B02F8013B8142F9D1A4EB0804BC
:1051500008F1FF33002C0193039D94DA019B002B8F
:10516000FFF6E0AD0024AAE7A9464FF0080CC8E717
:105170000B46A94610AD013C05F8183D00230193EC
:105180007FE71C46019B002B99DAAAE7302F85D1D7
:10519000304602939047019B3268013B0193029B8A
:1051A00092680BF1010B013598467BE74FF0100C2C
:1051B000A7E70AF10402DAF800109246002962DB40
:1051C0000AAD039505F10B02DFF8A0801046A8FB9D
:1051D00001C3DB0803EB830E9C46A1EB4E03303387
:1051E000DBB2614600F8013D0029F0D1121A2A44D1
:1051F00001E010F8013F05F8013BAA42F9D1039DF7
:10520000521B531EA41A01933BE75246192B52F826
:10521000041BA94688BF9246D0D8CCE7A9464FF0D8
:10522000100C6EE72D238DF828300DF12903019322
:105230000AABB1EE488A039389E60D490D46B8F1F1
:10524000000F3FF45DAE08F1FF385BE69FED047B95
:10525000084D09958DED067B93E600BFAFF3008006
:105260000000000065CDCD4180650008CDCCCCCCE0
:105270007065000800E1F505002BE4D14FF0FF3325
:1052800001932027FDE62D238DF828300AAB4942F3
:105290000DF12905039395E74FF0FF330193202784
:1052A000F1E600BF00000000000000000000000068
:1052B0000023C0E901120360704700BF0000000036
:1052C000F8B504460E46154610304C2200211F4604
:1052D00000F026FD069B2760C4E90136E560F8BDB5
:1052E00001F1100370B504461646184641220D46DA
:1052F000002100F015FD3146402200F061FD60689C
:1053000000F076F8236803B1AB65A068256000F073
:105310007FF86068BDE8704000F072B800000000DF
:1053200070B5064640680D4600F062F8346814B95E
:105330000DE0A46D5CB104F110012846FBF7D4FC2C
:105340000028F6D1706800F05BF8204670BDB068A8
:1053500000F066F8EAE700BF00000000000000006F
:105360004368934201D20020704770B50546144649
:105370000E46806800F03CF8224631462868FBF76C
:105380000FFC012385F85130E86800F041F86C6D9E
:105390007CB12368186800F02BF8236858689D607A
:1053A00000F036F82368186800F02AF86468002CCA
:1053B000EFD1A86800F024F8012070BD00000000C3
:1053C00070B5044680680D46164600F011F8E06896
:1053D00000F026F8324628462168FBF7E1FBA0687A
:1053E000BDE8704000F00CB80000000000000000B4
:1053F000FCF70EBD000000000000000000000000EF
:10540000FCF72EBD000000000000000000000000BE
:10541000FCF726BE000000000000000000000000B5
:10542000FCF786BE00000000000000000000000045
:10543000104838B505224FF480710546FEF7C8FBC9
:1054400020246B6983F480736B610120FCF730FAD0
:10545000631E13F0FF04F4D14FF4807129830548D3
:1054600040F20622FEF7B4FB03490448BDE8384089
:10547000FDF73EBA00040240B0650008540F00205A
:1054800070B51C4C86B00023054620468DF81430BC
:105490008DF810101646FDF71BFB2378012B0CD05E
:1054A0000420012305AA2946CDE9013000922046B7
:1054B00004AAFDF7ADFA054640B90E48FDF720FBFA
:1054C0009DF814303370002006B070BD2046FDF703
:1054D0008FFA2378084A052B106005D00548FDF7A0
:1054E0000FFB68B206B070BD2046FDF741FAFFF72A
:1054F0009FFFF3E7540F00209412002000000000EB
:1055000070B51B4C86B00646002520468DF8141059
:105510008DF815208DF81050FDF7DAFA2378012B5D
:105520000CD0042204AB0195029200933146022371
:1055300005AA2046FDF76CFA054628B90C48FDF788
:10554000DFFA002006B070BD2046FDF751FA23783F
:10555000084A052B106005D00548FDF7D1FA68B25E
:1055600006B070BD2046FDF703FAFFF761FFF3E7D1
:10557000540F0020941200200000000000000000E2
:10558000F0B51A4C87B0054620468DF81710164620
:105590001F46FDF79DFA217801290CD004232946E6
:1055A0000293CDE9006701230DF117022046FDF7B4
:1055B0002FFA054628B90D48FDF7A2FA002007B0DA
:1055C000F0BD2046FDF714FA2378094A052B106038
:1055D00005D00648FDF794FA68B207B0F0BD204642
:1055E000FDF7C6F9FFF724FFF3E700BF540F0020D3
:1055F00094120020000000000000000000000000E5
:105600000EB400B582B003AA054852F8041B0192FB
:10561000FFF77EFB02B05DF804EB03B0704700BFFC
:105620001C1200200000000000000000000000002C
:10563000084B094A2020402158834FF48065598344
:105640004FF400644FF4804004215D835C835883F1
:105650005183FEE7000C02400004024000000000FD
:105660002DE9F0472DED028B82B000240546ADF800
:105670000640202383F31188FCF7EAFAFBF790FD3C
:105680002D4BDB685C625B6A9BB2ADF80630FBF7C2
:1056900097FDFCF7E5FA294B1A689A4204D09969FC
:1056A00093688A689A4242D3002383F31188244C7A
:1056B00095ED008A4FF020084FF040094FF48067C5
:1056C0004FF40066A4F8188018EE100AA4F8189099
:1056D00027832683FAF778FF41EC100B00F018FBC4
:1056E000D5ED018A824618EE900AFAF76DFF41EC7B
:1056F000100B00F00DFB82450CDAF5EEC08AF1EEDE
:1057000010FA4CBFA4F81A80678302B0BDEC028B7C
:10571000BDE8F087B5EEC08AF1EE10FA4CBFA4F8F0
:105720001A90668302B0BDEC028BBDE8F087054895
:10573000FBF7C6FCB8E700BF0C12002030080020C1
:10574000000C0240C06500080000000000000000DE
:105750002DE9F04FA1B0FDF703F8FBF751FC4C48E1
:105760004C49DFF85091DFF850810446FDF748FAC4
:1057700049494A48FDF71CF84FF6FF714748FDF7C5
:1057800077F8FFF755FE00F04BFA454A4549464881
:10579000FFF78EFD45494448FFF7C2FD05464FF42B
:1057A000FA60FCF785F82846C82100F059FA0CA9E0
:1057B00028465022FFF704FEBDF96270BDF9606013
:1057C000BDF95E00BDF95C10BDF95A30BDF9582035
:1057D000CDE90267CDE9001049462046FFF710FFEA
:1057E000BDF962B0BDF96E20BDF96C70BDF96060A5
:1057F000BDF968E0BDF95E00BDF96AA0BDF95C10B5
:10580000BDF95AC0BDF96630ABEB0202F61B03923C
:10581000BDF95870BDF964200296A1EB0E01A0EB12
:105820000A00ACEB0303BA1ACDE90010414620464A
:10583000FFF7E6FE0C98FAF7C7FE9DF87C300A9356
:10584000064611980F46FAF7BFFECDE908011098F9
:10585000FAF7BAFECDE906010F98FAF7B5FECDE9E1
:1058600004010E98FAF7B0FECDE902010D98FAF79F
:10587000ABFE3246CDE900013B460D492046FFF71D
:10588000BFFE0CA8FFF7ECFE6420FCF711F88EE7D2
:105890001C1200201C080020D06500080C120020FB
:1058A000000800200808002098120020E065000889
:1058B00068660008E8650008286600080000000027
:1058C00070B54C4C82B00546002320788DF8073027
:1058D00080226B21FFF714FE58B12378682B0CBF90
:1058E0006920682080226B212070FFF709FE0028C4
:1058F0007DD10120FBF7DCFF682601E0FBF7D8FF34
:105900000DF107026B212078FFF7BAFD78B12378FB
:10591000682B0CBF692068204FF06B010DF1070266
:105920000CBF20702670FFF7ABFD00285FD19DF9FA
:105930000730002B4FF00100E0DB6E0006F0180688
:1059400032461B212078FFF7DBFD58B12378682B06
:105950000CBF6920682032461B212070FFF7D0FD64
:10596000002844D1EE00012006F01806FBF7A0FF46
:1059700032461C212078FFF7C3FD50B12378682BF5
:105980000CBF6920682032461C212070FFF7B8FD4B
:1059900068BB0120C5F30725FBF78AFF2A461921BA
:1059A0002078FFF7ADFD50B12378682B0CBF69203C
:1059B00068202A4619212070FFF7A2FDB8B90120FE
:1059C000FBF776FF012238212078FFF799FD50B1CF
:1059D0002378682B0CBF69206820012238212070B1
:1059E000FFF78EFD18B90120FBF762FF002002B01F
:1059F00070BD00BF2808002000000000000000006B
:105A0000F0B5284E87B004460D46174630786A46F2
:105A100016233A21FFF7B4FD58B13378682B0CBF39
:105A2000692068206A4616233A213070FFF7A8FDE6
:105A300098BB17B19DF800303B70BDB19DF9017066
:105A40009DF802109DF903609DF804209DF9050062
:105A50009DF8063041EA072142EA062243EA002384
:105A6000494252425B4229806A80AB80BCB19DF9B9
:105A70000D009DF909609DF80A109DF90B509DF8E5
:105A80000C209DF80E3041EA062143EA002342EA49
:105A9000052221806280A380002007B0F0BD20464F
:105AA00007B0F0BD28080020000000000000000042
:105AB0001B499FED1C6ADFED1C6AF0B5A1F12800BF
:105AC0001A4E00F10C0541F6FF77FA2431F9023B3A
:105AD000B1F90A20B1F910C09A1AB1F90430A3EB58
